******************************************************************************
                  TI ARM Linker PC v18.12.4                    
******************************************************************************
>> Linked Wed Oct 28 13:56:43 2020

OUTPUT FILE NAME:   <Lab8_Part3.out>
ENTRY POINT SYMBOL: "_c_int00_noargs"  address: 00000955


MEMORY CONFIGURATION

         name            origin    length      used     unused   attr    fill
----------------------  --------  ---------  --------  --------  ----  --------
  MAIN                  00000000   00040000  000009c4  0003f63c  R  X
  INFO                  00200000   00004000  00000000  00004000  R  X
  SRAM_CODE             01000000   00010000  00000204  0000fdfc  RW X
  SRAM_DATA             20000000   00010000  00000204  0000fdfc  RW  


SEGMENT ALLOCATION MAP

run origin  load origin   length   init length attrs members
----------  ----------- ---------- ----------- ----- -------
00000000    00000000    000009c8   000009c8    r-x
  00000000    00000000    000000e4   000000e4    r-- .intvecs
  000000e4    000000e4    000008c8   000008c8    r-x .text
  000009b0    000009b0    00000018   00000018    r-- .cinit
20000000    20000000    00000004   00000000    rw-
  20000000    20000000    00000004   00000000    rw- .data
2000fe00    2000fe00    00000200   00000000    rw-
  2000fe00    2000fe00    00000200   00000000    rw- .stack


SECTION ALLOCATION MAP

 output                                  attributes/
section   page    origin      length       input sections
--------  ----  ----------  ----------   ----------------
.intvecs   0    00000000    000000e4     
                  00000000    000000e4     startup_msp432p401r_ccs.obj (.intvecs:retain)

.text      0    000000e4    000008c8     
                  000000e4    000003f4     main.obj (.text)
                  000004d8    00000334     system_msp432p401r.obj (.text)
                  0000080c    0000009c     rtsv7M4_T_le_v4SPD16_eabi.lib : memcpy_t2.asm.obj (.text)
                  000008a8    00000068                                   : copy_decompress_lzss.c.obj (.text:decompress:lzss:__TI_decompress_lzss)
                  00000910    00000044                                   : autoinit.c.obj (.text:__TI_auto_init_nobinit_nopinit:__TI_auto_init_nobinit_nopinit)
                  00000954    00000034                                   : boot_cortex_m.c.obj (.text:_c_int00_noargs:_c_int00_noargs)
                  00000988    0000000e                                   : copy_decompress_none.c.obj (.text:decompress:none:__TI_decompress_none)
                  00000996    0000000e     startup_msp432p401r_ccs.obj (.text)
                  000009a4    00000004     rtsv7M4_T_le_v4SPD16_eabi.lib : pre_init.c.obj (.text:_system_pre_init)
                  000009a8    00000004                                   : exit.c.obj (.text:abort:abort)

.cinit     0    000009b0    00000018     
                  000009b0    00000008     (.cinit..data.load) [load image, compression = lzss]
                  000009b8    00000008     (__TI_handler_table)
                  000009c0    00000008     (__TI_cinit_table)

.init_array 
*          0    00000000    00000000     UNINITIALIZED

.binit     0    00000000    00000000     

.data      0    20000000    00000004     UNINITIALIZED
                  20000000    00000004     system_msp432p401r.obj (.data)

.stack     0    2000fe00    00000200     UNINITIALIZED
                  2000fe00    00000004     rtsv7M4_T_le_v4SPD16_eabi.lib : boot_cortex_m.c.obj (.stack)
                  2000fe04    000001fc     --HOLE--

MODULE SUMMARY

       Module                        code   ro data   rw data
       ------                        ----   -------   -------
    .\
       main.obj                      1012   0         0      
       system_msp432p401r.obj        820    0         8      
       startup_msp432p401r_ccs.obj   14     228       0      
    +--+-----------------------------+------+---------+---------+
       Total:                        1846   228       8      
                                                             
    C:\ti\ccs930\ccs\tools\compiler\ti-cgt-arm_18.12.4.LTS\lib\rtsv7M4_T_le_v4SPD16_eabi.lib
       memcpy_t2.asm.obj             156    0         0      
       copy_decompress_lzss.c.obj    104    0         0      
       autoinit.c.obj                68     0         0      
       boot_cortex_m.c.obj           52     0         0      
       copy_decompress_none.c.obj    14     0         0      
       exit.c.obj                    4      0         0      
       pre_init.c.obj                4      0         0      
    +--+-----------------------------+------+---------+---------+
       Total:                        402    0         0      
                                                             
       Stack:                        0      0         1024   
       Linker Generated:             0      24        0      
    +--+-----------------------------+------+---------+---------+
       Grand Total:                  2248   252       1032   


LINKER GENERATED COPY TABLES

__TI_cinit_table @ 000009c0 records: 1, size/record: 8, table size: 8
	.data: load addr=000009b0, load size=00000008 bytes, run addr=20000000, run size=00000004 bytes, compression=lzss


LINKER GENERATED HANDLER TABLE

__TI_handler_table @ 000009b8 records: 2, size/record: 4, table size: 8
	index: 0, handler: __TI_decompress_lzss
	index: 1, handler: __TI_decompress_none


GLOBAL SYMBOLS: SORTED ALPHABETICALLY BY Name 

address   name                          
-------   ----                          
000009a3  ADC14_IRQHandler              
000009a3  AES256_IRQHandler             
000009a3  BusFault_Handler              
000009a9  C$$EXIT                       
000009a3  COMP_E0_IRQHandler            
000009a3  COMP_E1_IRQHandler            
000009a3  CS_IRQHandler                 
000009a3  DMA_ERR_IRQHandler            
000009a3  DMA_INT0_IRQHandler           
000009a3  DMA_INT1_IRQHandler           
000009a3  DMA_INT2_IRQHandler           
000009a3  DMA_INT3_IRQHandler           
000009a3  DebugMon_Handler              
000009a3  Default_Handler               
000009a3  EUSCIA0_IRQHandler            
000009a3  EUSCIA1_IRQHandler            
000009a3  EUSCIA2_IRQHandler            
000009a3  EUSCIA3_IRQHandler            
000009a3  EUSCIB0_IRQHandler            
000009a3  EUSCIB1_IRQHandler            
000009a3  EUSCIB2_IRQHandler            
000009a3  EUSCIB3_IRQHandler            
000009a3  FLCTL_IRQHandler              
000009a3  FPU_IRQHandler                
000009a3  HardFault_Handler             
000009a3  MemManage_Handler             
000009a3  NMI_Handler                   
000009a3  PCM_IRQHandler                
000009a3  PORT1_IRQHandler              
000009a3  PORT2_IRQHandler              
000009a3  PORT3_IRQHandler              
000009a3  PORT4_IRQHandler              
000009a3  PORT5_IRQHandler              
000009a3  PORT6_IRQHandler              
000009a3  PSS_IRQHandler                
000009a3  PendSV_Handler                
000009a3  RTC_C_IRQHandler              
0000019f  Read_Keypad                   
00000997  Reset_Handler                 
000009a3  SVC_Handler                   
00000449  SysTick_Delay                 
000009a3  SysTick_Handler               
00000425  SysTick_Init                  
20000000  SystemCoreClock               
000004d9  SystemCoreClockUpdate         
00000751  SystemInit                    
000009a3  T32_INT1_IRQHandler           
000009a3  T32_INT2_IRQHandler           
000009a3  T32_INTC_IRQHandler           
000009a3  TA0_0_IRQHandler              
000009a3  TA0_N_IRQHandler              
000009a3  TA1_0_IRQHandler              
000009a3  TA1_N_IRQHandler              
000009a3  TA2_0_IRQHandler              
000009a3  TA2_N_IRQHandler              
000009a3  TA3_0_IRQHandler              
000009a3  TA3_N_IRQHandler              
000009a3  UsageFault_Handler            
4000480c  WDTCTL_SYM                    
000009a3  WDT_A_IRQHandler              
20010000  __STACK_END                   
00000200  __STACK_SIZE                  
000009c0  __TI_CINIT_Base               
000009c8  __TI_CINIT_Limit              
000009b8  __TI_Handler_Table_Base       
000009c0  __TI_Handler_Table_Limit      
00000911  __TI_auto_init_nobinit_nopinit
000008a9  __TI_decompress_lzss          
00000989  __TI_decompress_none          
ffffffff  __TI_pprof_out_hndl           
ffffffff  __TI_prof_data_size           
ffffffff  __TI_prof_data_start          
00000000  __TI_static_base__            
0000080d  __aeabi_memcpy                
0000080d  __aeabi_memcpy4               
0000080d  __aeabi_memcpy8               
ffffffff  __binit__                     
ffffffff  __c_args__                    
UNDEFED   __mpu_init                    
2000fe00  __stack                       
00000955  _c_int00_noargs               
UNDEFED   _system_post_cinit            
000009a5  _system_pre_init              
000009a9  abort                         
ffffffff  binit                         
0000049d  button_Debounce               
00000000  interruptVectors              
0000016b  keypadSetup                   
000000e5  main                          
0000080d  memcpy                        
00000121  pwminit                       


GLOBAL SYMBOLS: SORTED BY Symbol Address 

address   name                          
-------   ----                          
00000000  __TI_static_base__            
00000000  interruptVectors              
000000e5  main                          
00000121  pwminit                       
0000016b  keypadSetup                   
0000019f  Read_Keypad                   
00000200  __STACK_SIZE                  
00000425  SysTick_Init                  
00000449  SysTick_Delay                 
0000049d  button_Debounce               
000004d9  SystemCoreClockUpdate         
00000751  SystemInit                    
0000080d  __aeabi_memcpy                
0000080d  __aeabi_memcpy4               
0000080d  __aeabi_memcpy8               
0000080d  memcpy                        
000008a9  __TI_decompress_lzss          
00000911  __TI_auto_init_nobinit_nopinit
00000955  _c_int00_noargs               
00000989  __TI_decompress_none          
00000997  Reset_Handler                 
000009a3  ADC14_IRQHandler              
000009a3  AES256_IRQHandler             
000009a3  BusFault_Handler              
000009a3  COMP_E0_IRQHandler            
000009a3  COMP_E1_IRQHandler            
000009a3  CS_IRQHandler                 
000009a3  DMA_ERR_IRQHandler            
000009a3  DMA_INT0_IRQHandler           
000009a3  DMA_INT1_IRQHandler           
000009a3  DMA_INT2_IRQHandler           
000009a3  DMA_INT3_IRQHandler           
000009a3  DebugMon_Handler              
000009a3  Default_Handler               
000009a3  EUSCIA0_IRQHandler            
000009a3  EUSCIA1_IRQHandler            
000009a3  EUSCIA2_IRQHandler            
000009a3  EUSCIA3_IRQHandler            
000009a3  EUSCIB0_IRQHandler            
000009a3  EUSCIB1_IRQHandler            
000009a3  EUSCIB2_IRQHandler            
000009a3  EUSCIB3_IRQHandler            
000009a3  FLCTL_IRQHandler              
000009a3  FPU_IRQHandler                
000009a3  HardFault_Handler             
000009a3  MemManage_Handler             
000009a3  NMI_Handler                   
000009a3  PCM_IRQHandler                
000009a3  PORT1_IRQHandler              
000009a3  PORT2_IRQHandler              
000009a3  PORT3_IRQHandler              
000009a3  PORT4_IRQHandler              
000009a3  PORT5_IRQHandler              
000009a3  PORT6_IRQHandler              
000009a3  PSS_IRQHandler                
000009a3  PendSV_Handler                
000009a3  RTC_C_IRQHandler              
000009a3  SVC_Handler                   
000009a3  SysTick_Handler               
000009a3  T32_INT1_IRQHandler           
000009a3  T32_INT2_IRQHandler           
000009a3  T32_INTC_IRQHandler           
000009a3  TA0_0_IRQHandler              
000009a3  TA0_N_IRQHandler              
000009a3  TA1_0_IRQHandler              
000009a3  TA1_N_IRQHandler              
000009a3  TA2_0_IRQHandler              
000009a3  TA2_N_IRQHandler              
000009a3  TA3_0_IRQHandler              
000009a3  TA3_N_IRQHandler              
000009a3  UsageFault_Handler            
000009a3  WDT_A_IRQHandler              
000009a5  _system_pre_init              
000009a9  C$$EXIT                       
000009a9  abort                         
000009b8  __TI_Handler_Table_Base       
000009c0  __TI_CINIT_Base               
000009c0  __TI_Handler_Table_Limit      
000009c8  __TI_CINIT_Limit              
20000000  SystemCoreClock               
2000fe00  __stack                       
20010000  __STACK_END                   
4000480c  WDTCTL_SYM                    
ffffffff  __TI_pprof_out_hndl           
ffffffff  __TI_prof_data_size           
ffffffff  __TI_prof_data_start          
ffffffff  __binit__                     
ffffffff  __c_args__                    
ffffffff  binit                         
UNDEFED   __mpu_init                    
UNDEFED   _system_post_cinit            

[91 symbols]
