******************************************************************************
                  TI ARM Linker PC v18.12.4                    
******************************************************************************
>> Linked Thu Oct 22 17:14:30 2020

OUTPUT FILE NAME:   <Lab7Part3.out>
ENTRY POINT SYMBOL: "_c_int00_noargs"  address: 00000875


MEMORY CONFIGURATION

         name            origin    length      used     unused   attr    fill
----------------------  --------  ---------  --------  --------  ----  --------
  MAIN                  00000000   00040000  0000091a  0003f6e6  R  X
  INFO                  00200000   00004000  00000000  00004000  R  X
  SRAM_CODE             01000000   00010000  00000204  0000fdfc  RW X
  SRAM_DATA             20000000   00010000  00000204  0000fdfc  RW  


SEGMENT ALLOCATION MAP

run origin  load origin   length   init length attrs members
----------  ----------- ---------- ----------- ----- -------
00000000    00000000    00000920   00000920    r-x
  00000000    00000000    000000e4   000000e4    r-- .intvecs
  000000e4    000000e4    000007fc   000007fc    r-x .text
  000008e0    000008e0    00000022   00000022    r-- .const
  00000908    00000908    00000018   00000018    r-- .cinit
20000000    20000000    00000004   00000000    rw-
  20000000    20000000    00000004   00000000    rw- .data
2000fe00    2000fe00    00000200   00000000    rw-
  2000fe00    2000fe00    00000200   00000000    rw- .stack


SECTION ALLOCATION MAP

 output                                  attributes/
section   page    origin      length       input sections
--------  ----  ----------  ----------   ----------------
.intvecs   0    00000000    000000e4     
                  00000000    000000e4     startup_msp432p401r_ccs.obj (.intvecs:retain)

.text      0    000000e4    000007fc     
                  000000e4    00000334     system_msp432p401r.obj (.text)
                  00000418    00000314     main.obj (.text)
                  0000072c    0000009c     rtsv7M4_T_le_v4SPD16_eabi.lib : memcpy_t2.asm.obj (.text)
                  000007c8    00000068                                   : copy_decompress_lzss.c.obj (.text:decompress:lzss:__TI_decompress_lzss)
                  00000830    00000044                                   : autoinit.c.obj (.text:__TI_auto_init_nobinit_nopinit:__TI_auto_init_nobinit_nopinit)
                  00000874    00000034                                   : boot_cortex_m.c.obj (.text:_c_int00_noargs:_c_int00_noargs)
                  000008a8    00000014                                   : strlen.c.obj (.text:strlen)
                  000008bc    0000000e                                   : copy_decompress_none.c.obj (.text:decompress:none:__TI_decompress_none)
                  000008ca    0000000e     startup_msp432p401r_ccs.obj (.text)
                  000008d8    00000004     rtsv7M4_T_le_v4SPD16_eabi.lib : pre_init.c.obj (.text:_system_pre_init)
                  000008dc    00000004                                   : exit.c.obj (.text:abort:abort)

.const     0    000008e0    00000022     
                  000008e0    00000011     main.obj (.const:.string:$P$T0$1)
                  000008f1    00000011     main.obj (.const:.string:$P$T1$2)

.cinit     0    00000908    00000018     
                  00000908    00000008     (.cinit..data.load) [load image, compression = lzss]
                  00000910    00000008     (__TI_handler_table)
                  00000918    00000008     (__TI_cinit_table)

.init_array 
*          0    00000000    00000000     UNINITIALIZED

.binit     0    00000000    00000000     

.data      0    20000000    00000004     UNINITIALIZED
                  20000000    00000004     system_msp432p401r.obj (.data)

.stack     0    2000fe00    00000200     UNINITIALIZED
                  2000fe00    00000004     rtsv7M4_T_le_v4SPD16_eabi.lib : boot_cortex_m.c.obj (.stack)
                  2000fe04    000001fc     --HOLE--

MODULE SUMMARY

       Module                        code   ro data   rw data
       ------                        ----   -------   -------
    .\
       system_msp432p401r.obj        820    0         8      
       main.obj                      788    34        0      
       startup_msp432p401r_ccs.obj   14     228       0      
    +--+-----------------------------+------+---------+---------+
       Total:                        1622   262       8      
                                                             
    C:\ti\ccs930\ccs\tools\compiler\ti-cgt-arm_18.12.4.LTS\lib\rtsv7M4_T_le_v4SPD16_eabi.lib
       memcpy_t2.asm.obj             156    0         0      
       copy_decompress_lzss.c.obj    104    0         0      
       autoinit.c.obj                68     0         0      
       boot_cortex_m.c.obj           52     0         0      
       strlen.c.obj                  20     0         0      
       copy_decompress_none.c.obj    14     0         0      
       exit.c.obj                    4      0         0      
       pre_init.c.obj                4      0         0      
    +--+-----------------------------+------+---------+---------+
       Total:                        422    0         0      
                                                             
       Stack:                        0      0         1024   
       Linker Generated:             0      24        0      
    +--+-----------------------------+------+---------+---------+
       Grand Total:                  2044   286       1032   


LINKER GENERATED COPY TABLES

__TI_cinit_table @ 00000918 records: 1, size/record: 8, table size: 8
	.data: load addr=00000908, load size=00000008 bytes, run addr=20000000, run size=00000004 bytes, compression=lzss


LINKER GENERATED HANDLER TABLE

__TI_handler_table @ 00000910 records: 2, size/record: 4, table size: 8
	index: 0, handler: __TI_decompress_lzss
	index: 1, handler: __TI_decompress_none


GLOBAL SYMBOLS: SORTED ALPHABETICALLY BY Name 

address   name                          
-------   ----                          
000008d7  ADC14_IRQHandler              
000008d7  AES256_IRQHandler             
000008d7  BusFault_Handler              
000008dd  C$$EXIT                       
000008d7  COMP_E0_IRQHandler            
000008d7  COMP_E1_IRQHandler            
000008d7  CS_IRQHandler                 
000008d7  DMA_ERR_IRQHandler            
000008d7  DMA_INT0_IRQHandler           
000008d7  DMA_INT1_IRQHandler           
000008d7  DMA_INT2_IRQHandler           
000008d7  DMA_INT3_IRQHandler           
000008d7  DebugMon_Handler              
000008d7  Default_Handler               
000008d7  EUSCIA0_IRQHandler            
000008d7  EUSCIA1_IRQHandler            
000008d7  EUSCIA2_IRQHandler            
000008d7  EUSCIA3_IRQHandler            
000008d7  EUSCIB0_IRQHandler            
000008d7  EUSCIB1_IRQHandler            
000008d7  EUSCIB2_IRQHandler            
000008d7  EUSCIB3_IRQHandler            
000008d7  FLCTL_IRQHandler              
000008d7  FPU_IRQHandler                
000008d7  HardFault_Handler             
0000064b  LCD_Init                      
000008d7  MemManage_Handler             
000008d7  NMI_Handler                   
000008d7  PCM_IRQHandler                
000008d7  PORT1_IRQHandler              
000008d7  PORT2_IRQHandler              
000008d7  PORT3_IRQHandler              
000008d7  PORT4_IRQHandler              
000008d7  PORT5_IRQHandler              
000008d7  PORT6_IRQHandler              
000008d7  PSS_IRQHandler                
000008d7  PendSV_Handler                
000008d7  RTC_C_IRQHandler              
000008cb  Reset_Handler                 
000008d7  SVC_Handler                   
000008d7  SysTick_Handler               
00000503  SysTick_Init                  
20000000  SystemCoreClock               
000000e5  SystemCoreClockUpdate         
0000035d  SystemInit                    
000008d7  T32_INT1_IRQHandler           
000008d7  T32_INT2_IRQHandler           
000008d7  T32_INTC_IRQHandler           
000008d7  TA0_0_IRQHandler              
000008d7  TA0_N_IRQHandler              
000008d7  TA1_0_IRQHandler              
000008d7  TA1_N_IRQHandler              
000008d7  TA2_0_IRQHandler              
000008d7  TA2_N_IRQHandler              
000008d7  TA3_0_IRQHandler              
000008d7  TA3_N_IRQHandler              
000008d7  UsageFault_Handler            
4000480c  WDTCTL_SYM                    
000008d7  WDT_A_IRQHandler              
20010000  __STACK_END                   
00000200  __STACK_SIZE                  
00000918  __TI_CINIT_Base               
00000920  __TI_CINIT_Limit              
00000910  __TI_Handler_Table_Base       
00000918  __TI_Handler_Table_Limit      
00000831  __TI_auto_init_nobinit_nopinit
000007c9  __TI_decompress_lzss          
000008bd  __TI_decompress_none          
ffffffff  __TI_pprof_out_hndl           
ffffffff  __TI_prof_data_size           
ffffffff  __TI_prof_data_start          
00000000  __TI_static_base__            
0000072d  __aeabi_memcpy                
0000072d  __aeabi_memcpy4               
0000072d  __aeabi_memcpy8               
ffffffff  __binit__                     
ffffffff  __c_args__                    
UNDEFED   __mpu_init                    
2000fe00  __stack                       
00000875  _c_int00_noargs               
UNDEFED   _system_post_cinit            
000008d9  _system_pre_init              
000008dd  abort                         
ffffffff  binit                         
00000575  cmdWrite                      
00000595  dataWrite                     
00000521  delayMS                       
0000054d  delayUS                       
00000000  interruptVectors              
00000419  main                          
0000072d  memcpy                        
00000617  pulseEN                       
000005b5  pushByte                      
000005ef  pushNibble                    
000008a9  strlen                        
000006dd  writeString                   


GLOBAL SYMBOLS: SORTED BY Symbol Address 

address   name                          
-------   ----                          
00000000  __TI_static_base__            
00000000  interruptVectors              
000000e5  SystemCoreClockUpdate         
00000200  __STACK_SIZE                  
0000035d  SystemInit                    
00000419  main                          
00000503  SysTick_Init                  
00000521  delayMS                       
0000054d  delayUS                       
00000575  cmdWrite                      
00000595  dataWrite                     
000005b5  pushByte                      
000005ef  pushNibble                    
00000617  pulseEN                       
0000064b  LCD_Init                      
000006dd  writeString                   
0000072d  __aeabi_memcpy                
0000072d  __aeabi_memcpy4               
0000072d  __aeabi_memcpy8               
0000072d  memcpy                        
000007c9  __TI_decompress_lzss          
00000831  __TI_auto_init_nobinit_nopinit
00000875  _c_int00_noargs               
000008a9  strlen                        
000008bd  __TI_decompress_none          
000008cb  Reset_Handler                 
000008d7  ADC14_IRQHandler              
000008d7  AES256_IRQHandler             
000008d7  BusFault_Handler              
000008d7  COMP_E0_IRQHandler            
000008d7  COMP_E1_IRQHandler            
000008d7  CS_IRQHandler                 
000008d7  DMA_ERR_IRQHandler            
000008d7  DMA_INT0_IRQHandler           
000008d7  DMA_INT1_IRQHandler           
000008d7  DMA_INT2_IRQHandler           
000008d7  DMA_INT3_IRQHandler           
000008d7  DebugMon_Handler              
000008d7  Default_Handler               
000008d7  EUSCIA0_IRQHandler            
000008d7  EUSCIA1_IRQHandler            
000008d7  EUSCIA2_IRQHandler            
000008d7  EUSCIA3_IRQHandler            
000008d7  EUSCIB0_IRQHandler            
000008d7  EUSCIB1_IRQHandler            
000008d7  EUSCIB2_IRQHandler            
000008d7  EUSCIB3_IRQHandler            
000008d7  FLCTL_IRQHandler              
000008d7  FPU_IRQHandler                
000008d7  HardFault_Handler             
000008d7  MemManage_Handler             
000008d7  NMI_Handler                   
000008d7  PCM_IRQHandler                
000008d7  PORT1_IRQHandler              
000008d7  PORT2_IRQHandler              
000008d7  PORT3_IRQHandler              
000008d7  PORT4_IRQHandler              
000008d7  PORT5_IRQHandler              
000008d7  PORT6_IRQHandler              
000008d7  PSS_IRQHandler                
000008d7  PendSV_Handler                
000008d7  RTC_C_IRQHandler              
000008d7  SVC_Handler                   
000008d7  SysTick_Handler               
000008d7  T32_INT1_IRQHandler           
000008d7  T32_INT2_IRQHandler           
000008d7  T32_INTC_IRQHandler           
000008d7  TA0_0_IRQHandler              
000008d7  TA0_N_IRQHandler              
000008d7  TA1_0_IRQHandler              
000008d7  TA1_N_IRQHandler              
000008d7  TA2_0_IRQHandler              
000008d7  TA2_N_IRQHandler              
000008d7  TA3_0_IRQHandler              
000008d7  TA3_N_IRQHandler              
000008d7  UsageFault_Handler            
000008d7  WDT_A_IRQHandler              
000008d9  _system_pre_init              
000008dd  C$$EXIT                       
000008dd  abort                         
00000910  __TI_Handler_Table_Base       
00000918  __TI_CINIT_Base               
00000918  __TI_Handler_Table_Limit      
00000920  __TI_CINIT_Limit              
20000000  SystemCoreClock               
2000fe00  __stack                       
20010000  __STACK_END                   
4000480c  WDTCTL_SYM                    
ffffffff  __TI_pprof_out_hndl           
ffffffff  __TI_prof_data_size           
ffffffff  __TI_prof_data_start          
ffffffff  __binit__                     
ffffffff  __c_args__                    
ffffffff  binit                         
UNDEFED   __mpu_init                    
UNDEFED   _system_post_cinit            

[96 symbols]
